:020000040800F2
:10000000F826002089010008AD330008392F0008C8
:1000100049330008AD040008094000080000000052
:10002000000000000000000000000000D1390008BE
:10003000F906000800000000A1370008993A0008FE
:10004000A3010008A3010008A3010008A301000800
:10005000A3010008A3010008A3010008A3010008F0
:10006000A3010008A3010008A3010008A3010008E0
:10007000A3010008410500084D05000859050008C6
:100080006505000871050008A3010008F13F00089C
:10009000FD3F0008A3010008A3010008A301000818
:1000A000A3010008CD3A0008A3010008A30100083D
:1000B000D93A0008A3010008A3010008A301000821
:1000C000A3010008A3010008A3010008A301000880
:1000D000A30100089D3F0008B93F0008D53F000874
:1000E000A3010008A3010008A301000800F002F822
:1000F00000F03AF80AA090E8000C82448344AAF188
:100100000107DA4501D100F02FF8AFF2090EBAE885
:100110000F0013F0010F18BFFB1A43F0010318473B
:10012000BC660000DC660000103A24BF78C878C1C5
:10013000FAD8520724BF30C830C144BF04680C60ED
:10014000704700000023002400250026103A28BF35
:1001500078C1FBD8520728BF30C148BF0B60704739
:100160001FB51FBD10B510BD00F020F91146FFF7F7
:10017000F7FF04F0BDF800F03EF903B4FFF7F2FF1B
:1001800003BC00F045F900000948804709480047D2
:10019000FEE7FEE7FEE7FEE7FEE7FEE7FEE7FEE737
:1001A000FEE7FEE704480549054A064B7047000094
:1001B000C93A0008ED000008F8200020F8260020C9
:1001C000F8220020F822002053EA020C00F0698097
:1001D0002DE9F04B4FF00006002B1FBFB3FA83F55B
:1001E00003FA05F424FA05F65E4012BF1643B2FA8C
:1001F00082F502FA05F4C5F120051EBF22FA05FCBE
:1002000044EA0C04203556EA044C4FEA144418BF63
:10021000641C4FF000084FF00009904271EB030C92
:1002200039D3002919BFB1FA81F701FA07F6B0FAFC
:1002300080F700FA07F6C7F120071EBF20FA07FC77
:1002400046EA0C062037B6FBF4FCA7EB0507103F87
:1002500007F01F0BCBF120062CFA06F60CFA0BFB6D
:1002600044BFB3460026202FA4BF5E464FF0000BCC
:100270005BEA060C08BF4FF0010B19EB0B0948EBCA
:100280000608ABFB027C06FB02CC0BFB03CCC01BBD
:1002900071EB0C01C1E70B46024641464846BDE8FA
:1002A000F08B13B5084318BF4FF0FF300146AFF392
:1002B0000080BDE81C407047032A40F2308010F0F7
:1002C000030C00F0158011F8013BBCF1020F6244F1
:1002D00098BF11F801CB00F8013B38BF11F8013B82
:1002E000A2F1040298BF00F801CB38BF00F8013B2F
:1002F00011F0030300F02880083AC0F0088051F89C
:10030000043B083A51F804CBA0E80810F5E7121DA9
:100310005CBF51F8043B40F8043BAFF30080D207C8
:1003200024BF11F8013B11F801CB48BF11F8012B94
:1003300024BF00F8013B00F801CB48BF00F8012BB7
:10034000704770477047704710B5203AC0F00B8077
:10035000B1E81850A0E81850B1E81850A0E81850BB
:10036000203ABFF4F5AF5FEA027C24BFB1E8185031
:10037000A0E8185044BF18C918C0BDE810405FEA93
:10038000827C24BF51F8043B40F8043B08BF70470F
:10039000D20728BF31F8023B48BF11F8012B28BF14
:1003A00020F8023B48BF00F8012B7047754600F06B
:1003B0002BF8AE4605006946534620F007008546F7
:1003C00018B020B5FFF7EEFEBDE820404FF0000664
:1003D0004FF000074FF000084FF0000BAC46ACE8C0
:1003E000C009ACE8C009ACE8C009ACE8C00921F01C
:1003F00007018D46704710B50446AFF300802046D4
:10040000BDE81040FFF7B9BE00487047100000205B
:1004100001491820ABBEFEE726000200704700002D
:10042000B0B5482000F036F900F042F840F68C30C4
:10043000C2F2000001F01EFD40F66440C2F200006E
:10044000016840F25814CA68C2F2000442F0100277
:10045000CA602146132202F053FC40F61C40C2F24F
:1004600000000168CA6842F01002CA6004F1180175
:10047000152202F045FC40F2D015002040F208247D
:10048000C2F20005C4F24840C2F2000400216860D4
:10049000D4F81805CCF24841A96005F05DFF01468B
:1004A00020462961BDE8B04002F048BDFEE70000EB
:1004B00010B58AB00E2040F6C81409900120002122
:1004C000C2F200040890CDE90610CDE90011CDE993
:1004D0000211CDE904116946204600F07FF920465B
:1004E00000F0BCFC2046022100F00EF90AB010BD5D
:1004F000018801318AB2642A28BF642101807047D3
:1005000010B582B0DDE904EC140A8DF801201A0A56
:100510008DF802204FEA1E228DF804204FEA1C229B
:100520008DF806206A468DF800408DF803308DF86E
:1005300005E08DF807C003F079FE02B010BD0000A1
:1005400040F60030C2F2000000F042BD40F6342018
:10055000C2F2000000F03CBD40F6F010C2F2000014
:1005600000F036BD40F67820C2F2000000F030BD49
:1005700040F6BC20C2F2000000F02ABD70B582B087
:1005800041F20403CEF20003196840F2A81600916C
:10059000C2F20006009902683468009D0560186880
:1005A000019001983369984202D2F0680130F060FE
:1005B000881A05F0E9FE0546204605F0E5FE0146ED
:1005C000284605F0B7FD0199316102B070BD000009
:1005D0002DE9F04782B041F20400CEF2000001683C
:1005E00040F2A81A00910068C2F2000A0190019935
:1005F000DAE90302002791423CBF0130CAF80C003F
:1006000001990023CAF81010009E4FF0FF31E0FB63
:100610000167DAE90049DAF80880304639462246AF
:10062000CAE90667FFF7D0FD0546A0FB040201FBFF
:100630000421341A67EB0106204631464A4600235E
:10064000CAF82050FFF7C0FD87B2AAF8240007FBC4
:1006500009F0201A66F1000142460023FFF7B4FDBD
:1006600004464FF47A7005FB0070AAF8264005F0A6
:100670008BFE0546A0B205F087FE41F26F21C3F65E
:10068000832105F0FDFE294605F0BCFC02B0BDE863
:10069000F087000010B54EF6FC5CCEF2000CDCF8E2
:1006A000002044F24023C0F20F0342F0807258430E
:1006B00044F6D353CCF8002041F20002C1F26203A9
:1006C000CEF200024FF0000CA0FB033EC2F804C0C3
:1006D0004DF683611368C4F21B31A0FB011443F093
:1006E0000101116040F2A811C2F200014FEA9E120E
:1006F000A30C81E80D1010BD70470000EFF31080CF
:1007000072B600BFFEE7000090F82020013A012AEF
:1007100008D8006800F11402002013681943116022
:10072000704700BF00F1240201204FF480211368BC
:10073000194311607047000010B590F820E0D0F820
:1007400000C0AEF1010EBEF1010FDCF808E00FD8D9
:100750001EF0E05F16D0CEF3016E012000FA0EF01D
:1007600018608B68C3B1486843EAC00316E000BF55
:1007700000F1240101204FF480220B681A430A6023
:1007800010BD00BF00F1240101204FF400120B68DE
:100790001A430A6010BD00BF08684305D1E903048D
:1007A00003430CEB0E10C0F88031C0F88441097D82
:1007B000012905D100F5C2710B6843F480730B6009
:1007C0005168C0F88C11126800F5C071C0F888211A
:1007D000002001220B681A430A6010BDB0B5026800
:1007E00090F82030013B012B28D8D2F800020123D9
:1007F00040F00100C2F80002D1F814E0CC690EF01C
:100800001F0003FA00F0D2F81C326FEA000C834399
:10081000012CC2F81C3217D06CBBD2F80C3203EAA0
:100820000C03C2F80C32CB688C8844EA034302EB19
:10083000CE04C4F840320B4615E000BF416A41F4D3
:10084000802141620120B0BDD2F80C320343C2F8CE
:100850000C320B688C8844EA034302EBCE04C4F8E4
:10086000403201F10C038C681B8843EA044302EB1D
:10087000CE04C4F84432D2F804328D6943EA00044D
:10088000D1F810E0096A002D08BF03EA0C04C2F891
:100890000442D2F81432BEF1000F43EA000408BF4C
:1008A00003EA0C040129C2F8144204D1D2F81C1244
:1008B0000843C2F81C02D2F8000220F00100C2F87E
:1008C00000020020B0BD00007047000010B590F895
:1008D0002040013C012C7BD8D0F800C0002900F05A
:1008E0008180DCF81040A40700F081800CEB011C33
:1008F000DCF8B0410CF5D87E14F004049460DCF808
:10090000B04119BFE4085460640D1460DEF8004083
:100910000CF5DA7E04F00204D460DCF8B44124075C
:100920005ABFDEF8004004F00F0408241461DEF81A
:1009300000400029C4F307249461DEF800404FEA28
:1009400014445461DCF8B8211A70026802EB0112F9
:10095000D2F8B8214FEA12225A70026802EB011253
:10096000D2F8B8214FEA12429A70026802EB0112E3
:10097000D2F8B8214FEA1262DA70026802EB011273
:10098000D2F8BC211A71026802EB0112D2F8BC2124
:100990004FEA12225A71026802EB0112D2F8BC210E
:1009A0004FEA12429A71026802EB0112D2F8BC219E
:1009B0004FEA1262DA71006814BF00F1100100F111
:1009C0000C01002020220B681A430A6010BD00BFF2
:1009D00000F1240101204FF480220B681A430A60C1
:1009E00010BD00BFDCF80C40A4077FF47FAF00F11E
:1009F000240101204FF400120B681A430A6010BD55
:100A00002DE9F04F81B0044600684669D0F80490A3
:100A10008768D0F80CB0D0F810A0D0F81880F10793
:100A200004D1002530071DD424E000BFF90710D001
:100A30000121BA07816009D4780700F1AF80380737
:100A400000F1B680204600F037FA02E0204600F0C0
:100A500035FA0025F80500F18780F80300F1B18030
:100A6000300707D51BF0100004D0206845F400754E
:100A70001021C160700708D51BF0080005D0206860
:100A80000821C160204600F0B3F9B00706D5206800
:100A9000C068800702D0204600F0ACF9700607D588
:100AA0001AF0100004D0206845F48065102101611F
:100AB000B00608D51AF0080005D0206808210161A9
:100AC000204600F0C5F9F00606D5206800698007C9
:100AD00002D0204600F0BEF9B00308D519F010008E
:100AE00005D0206810214160204600F0B5F9F003E0
:100AF00008D519F0080005D020680821416020467B
:100B000000F0E6F9300440F19B805FEA497040F163
:100B1000948006F4807008EA102028435FEA887108
:100B2000014648BF41F00201B20558BF01465FEAE5
:100B300048700D4648BF45F00405700558BF0D4686
:100B4000300540F17A8018F0700000F0768010389F
:100B5000000905286CD8DFE800F003595D6165697C
:100B600045F0080564E000BF20684FF48071BA05C5
:100B700081600BD4780515D438051DD4204600F0CB
:100B80009FF9F8037FF56CAF1BE000BF204600F033
:100B900099F9F8037FF564AF13E000BF4FF40065E7
:100BA00058E700BF05F50055F8037FF559AF08E099
:100BB0004FF480554EE700BF05F58045F8037FF5FB
:100BC0004FAF20684FF48031BA0381600AD47803B4
:100BD00010D4380314D4204600F076F930073FF5DE
:100BE00041AF47E7204600F071F930073FF53AAFD3
:100BF00040E700BF05F5004530073FF533AF39E763
:100C000005F5803530073FF52DAF33E745F010058A
:100C10000EE000BF45F020050AE000BF45F04005AA
:100C200006E000BF45F0800502E000BF45F4807596
:100C30002068816921F07001816120680421416090
:100C400055B1606A40EA05012046616201B0BDE825
:100C5000F04FFFF739BE00BF01B0BDE8F08F0000D4
:100C6000B0B5C8B1044690F8200010B9204600F095
:100C700071F82068016841F00101016000F022FC78
:100C8000054600BF20684168C90707D100F01AFC7B
:100C9000401B0B28F6D312E00120B0BD016821F003
:100CA0000201016000F00EFC054600BF20684168AB
:100CB00089070DD500F006FC401B0B28F6D3606AAF
:100CC000052140F400306062012084F82010B0BD9E
:100CD000217E0268012922F0800208BF8032026072
:100CE000617E0268012922F0400208BF40320260A2
:100CF000A17E0268012922F0200208BF2032026092
:100D0000E17E0268012922F0100218BF1032026051
:100D1000217F0268012922F0080208BF0832026020
:100D2000617F0268012922F0040208BF04320260D8
:100D3000D4E901C2D4E9033561691A432A43114356
:100D4000ACF101021143C16100200121606284F80D
:100D50002010B0BDB0B586B040F60004C4F2010466
:100D60000068A4F5244200219042059102D006B00B
:100D7000B0BD00BF41F21800C4F20200426802ADEB
:100D800042F000724260426802F000720192019AE1
:100D9000026842F004020260006800F00400019062
:100DA00001984FF40060CDE9020101200490204633
:100DB000294600F06FFA4FF4805002900220039011
:100DC000032005902046294600F064FA13200521EF
:100DD000002200F02FFC132000F01CFC1420052141
:100DE000002200F027FC142000F014FC06B0B0BD77
:100DF0007047000010B58AB003AA01AB0021044679
:100E0000FFF764FD206846F20041C4F20001884209
:100E100002D00AB010BD00BF039940F20520814204
:100E200040F20820C2F2000006D040F206229142B1
:100E3000EFD100F5C86401E000F5A06401A92046E7
:100E400002F084FA204602F095FA0AB010BD0000C4
:100E5000704700007047000070470000B0B50446BE
:100E600090F8200001281DD1022084F8200020687D
:100E7000016821F00101016000F024FB054600BF7C
:100E800020684068C00713D000F01CFB401B0B28F3
:100E9000F6D3606A40F400306062052084F82000D8
:100EA0000120B0BD606A40F4002060620120B0BD46
:100EB00000206062B0BD0000704700007047000075
:100EC0007047000070470000704700007047000046
:100ED00070470000014690F82100022816D10868EA
:100EE000D1E90FC3026822F00E020260026822F00C
:100EF00001020260012000FA03F2CCF8042081F81C
:100F000021000020002281F82020704704208863FF
:100F10000120002281F820207047000080B590F861
:100F20002110022924D10268116821F00E011160FC
:100F30002F211368C4F202018A4240F20401C4F274
:100F4000020123F00103136016DD3023C4F2020313
:100F50009A421DD04423C4F202039A421CD0582363
:100F6000C4F202039A421DD14FF4803322E000BF45
:100F700004218163012080BD0823C4F202039A4248
:100F80000ED01C23C4F202039A420BD1102311E0AD
:100F90004FF480730EE000BF4FF480530AE000BFAF
:100FA000012307E001F1680C4FF08073624508BF30
:100FB0004FF480130B60012180F82110426B002157
:100FC00080F820100AB190470021084680BD00003B
:100FD00010B5D0E90FCE0168DCF800300A6823FABA
:100FE0000EF35C072AD512F0040427D00A68920693
:100FF00003D40A6822F004020A602F22C4F202021B
:10100000914240F20402C4F202025BDD3023C4F2DA
:101010000203994272D04423C4F20203994273D06E
:101020005823C4F20203994240F07A804FF480239F
:101030001360C16A002940F098806FE09C0727D5B3
:1010400012F0020424D00A68920606D40A6822F03C
:101050000A020A60012280F821202F22C4F2020233
:10106000914240F20402C4F202023BDD3023C4F29A
:101070000203994260D04423C4F2020399425FD034
:101080005823C4F20203994260D14FF4003365E063
:101090001B0743D512F0080208BF10BD0A6822F0F2
:1010A0000E020A60012101FA0EF2CCF804208163DD
:1010B00080F82110016B0022002980F8202054D1F3
:1010C0002CE000BF0823C4F20203994222D01C2363
:1010D000C4F20203994223D140231360C16A00295C
:1010E00043D11BE00823C4F2020399422CD01C23F5
:1010F000C4F20203994229D120232FE04FF48063E8
:101100001360C16A89BB09E04FF480431360C16A70
:1011100059BB03E004231360C16A31BB10BD00BF9B
:1011200002F168044FF08063A14208BF4FF48003CE
:101130001360C16AC9B9F1E74FF400730EE000BF54
:101140004FF400530AE000BF022307E002F16804F5
:101150004FF00073A14208BF4FF400131360816A7F
:101160000022002980F82020D8D0BDE81040084790
:10117000014600284FF0010008BF70472DE9F043F9
:10118000D1F800C04FF6F873CBF6FD734CF6CD42A4
:101190006344CCF6CC42A3FB02236FF0030707EABB
:1011A00093030027C4F2020701F10C09C1E90F7390
:1011B0000223D1E9012E99E87002D1F81C8081F850
:1011C0002130DCF8003043F6F077BB431A4342EAA3
:1011D0000E0222432A43324342EA090242EA08024B
:1011E000CCF8002000228A6381F8210081F82020B9
:1011F0000020BDE8F0437047F0B590F820C0BCF186
:10120000010F32D04FF0010E80F820E090F821C09D
:10121000BCF1010F26D14FF0020C80F821C04FF035
:10122000000CC0F838C0D0E900C4C56AC66BDCF851
:101230000070102C27F00107CCF80070006C0EFA3B
:1012400000F070600846CCF8043004BF10460A462F
:10125000CCF80800CCF80C20DCF8000045B140F0D8
:101260000E000DE0002180F820100220F0BD00BF2C
:1012700020F00400CCF80000DCF8000040F00A0088
:10128000CCF80000DCF8000040F00100CCF80000D1
:101290000020F0BD2DE9F04F82B041F20042C4F2CF
:1012A00001020E680423904208BF0323002E00931E
:1012B00000F0F68040F2004C4FF6FF7E0022C4F2B0
:1012C000010C0124C1F2100E4FF0000A4FF000098A
:1012D00047E000BF012502F00C040F27A7402BEACE
:1012E000070705FA04F43C4343F82640D1F804B05C
:1012F00040F20C455FEACB23DCF8083054BF23EA08
:10130000080343EA0803C4F20105CCF808302B684F
:101310005FEA8B2454BF23EA080343EA08032B60E7
:101320005FEA8B34DCF8043054BF23EA080343EA55
:1013300008035FEACB34CCF80430DCF800304FF01F
:10134000010454BF23EA080343EA0803CCF8003041
:101350000E680AF1010A36FA0AF302F1040200F0FB
:101360009F8004FA0AF816EA080FF1D04B6873451B
:1013700012DC122B56D8DFE803F0350B45495555E2
:1013800055555555555555555555554D510000BF59
:10139000D1F80C9046E000BF4FF6FF75C1F2210571
:1013A000AB420FDC0025C1F21105AB421AD000257B
:1013B000C1F21205AB4215D00025C1F22105AB42A6
:1013C00010D02FE00025C1F22205AB420AD0002543
:1013D000C1F23105AB4205D00025C1F23205AB4266
:1013E00020D100BF8B684BB1012B14BFC0F8148013
:1013F000C0F810804FF0080914E000BF4FF0040956
:1014000010E000BFCB6803F108090BE04FF00009C2
:1014100008E000BFCB6803F1040903E0CB6803F1E7
:101420000C0900BF13460546BAF1080F24BF203B44
:1014300004352E680F279F40BE4309FA03F3334358
:101440002B60CB79DB067FF583AF41F21804C4F241
:10145000020423684FEA9A0643F0010323602368DD
:1014600040F6000403F001030193019BACF57E7389
:1014700053F826B0C4F20104A0420FD040F6004455
:10148000C4F20104A0423FF425AF41F20004C4F2CB
:101490000104009DA04208BF02251CE700251AE7B1
:1014A00002B0BDE8F08F0000C26802EA0103914378
:1014B00041EA034101617047002A08BF0904016144
:1014C0007047000041F6F810C2F200000068704753
:1014D00040F2000041F6F811C2F20000C2F2000131
:1014E00000780A68104408607047000080B542F236
:1014F0000000C4F20200016841F010010160032005
:1015000000F0C4F80F2000F005F800F05BF80020B0
:1015100080BD0000B0B586B041F21801C4F20201EE
:101520000A68044642F400620A60096801A801F4EE
:10153000006101910199694600F098F900F0CCF939
:101540004DF68361C4F21B31A0FB01014FF0FF3067
:1015500000EB914140F6443042F60042C2F20000F6
:10156000C4F2010240F2E7330025C0E90021C0E9DE
:1015700002530561856100F0DFFB054610B1284686
:1015800006B0B0BD40F64430C2F2000000F072FC7C
:1015900005460028F3D1192000F03CF80F2C0DD897
:1015A000192021460022002500F044F840F20400F2
:1015B000C2F200000460284606B0B0BD01252846EE
:1015C00006B0B0BD80B582B041F21800C4F202008E
:1015D0000168002241F001010160016801F0010190
:1015E00001910199416841F08051416040680F21AB
:1015F00000F08050009000986FF0010000F01AF8A1
:101600000420C4F201000168022262F31A61016041
:1016100002B080BD002848BF704700F01F010122C2
:1016200002FA01F14EF200124009CEF2000242F835
:101630002010704710B54EF60C5CCEF2000CDCF8B2
:101640000030C3F3022E8EF00704042C28BF0424BC
:10165000BEF103034FF0FF3E0EFA04F438BF00233F
:10166000A14399400EFA03F39A43114300F00F028D
:10167000043A624409010C3200F16043B0F1FF3FCB
:10168000C8BF03F56442117010BD00004EF60C5146
:10169000CEF200010A684FF6FF031A4060F30A22F7
:1016A00042F0806040F0FD70086070472DE9F04323
:1016B00081B0002800F0858042F20008C4F20208E0
:1016C0000446D8F800000D4600F0070088420CD20E
:1016D000D8F8000020F007002843C8F80000D8F828
:1016E000000000F00700A8426BD1206841F2040915
:1016F0008107C4F2020917D5410705D5D9F80010B2
:1017000041F4E061C9F80010010705D5D9F80010CF
:1017100041F46051C9F80010D9F80010A26821F016
:10172000F0011143C9F80010C00741D1D8F80000FA
:1017300000F00700A8420CD9D8F8000020F00700FC
:101740002843C8F80000D8F8000000F00700A842BD
:1017500037D12068410707D5D9F80010E26821F495
:10176000E0611143C9F80010000708D5D9F800005E
:10177000216920F4605040EAC100C9F80000D9F89E
:10178000002002F00C00082841F20020C0F27A008C
:1017900050D146F2A273C2F38341C0F60003595CF4
:1017A000D2033BD440F60010C0F23D00484341E074
:1017B000606802280AD001282AD159F8041C89033C
:1017C00008D4012001B0BDE8F08300BF59F8041C23
:1017D0008901F6D5D9F8001021F003010843C9F8B2
:1017E0000000FFF76FFE064641F28837D9F8000087
:1017F000616800F00C00B0EB810F97D0FFF762FE3C
:10180000801BB842F2D9032001B0BDE8F08300BFCD
:1018100059F8041C8907D4D5DCE700BFD9F80020AB
:1018200046F2A073C2F34042C0F600039A5C4843FC
:10183000B0FBF2F0D9F8001046F28872C1F3031140
:10184000C0F60002515C40F2080220FA01F140F2B9
:101850000400C2F200000068C2F200021160FFF74B
:1018600059FE002001B0BDE8F08300000F220260A5
:1018700041F20402C4F20202136803F0030343605E
:10188000136803F0F0038360136803F4E063C3603C
:1018900012684FF4E06303EAD202026142F20000F0
:1018A000C4F20200006800F0070008607047000002
:1018B00040F2080041F20401C2F20000C4F2020149
:1018C0000068096846F29872C1F30221C0F600026E
:1018D000515CC8407047000040F2080041F204012A
:1018E000C2F20000C4F202010068096846F2987270
:1018F000C1F3C221C0F60002515CC840704700002D
:101900002DE9F04182B0002868D00446007841F209
:101910000006C007C4F2020625D0706800F00C0073
:1019200004281BD0706800F00C00082802D17068F1
:10193000C00313D46068002800F06881B0F5A02FC0
:1019400000F07C81B0F5803F00F07C81306820F4AD
:1019500080303060306820F4802076E13068800389
:1019600001D56068D0B32078800718D5706810F072
:101970000C0F07D0706800F00C0008286ED170685A
:10198000C0036BD43068800702D52069012825D1B7
:101990003068616920F0F80040EAC10030602078CA
:1019A00000071FD42078400732D4E56995B17068EC
:1019B00000F00C00082840F08F80012D0ED07068D8
:1019C000216A00F480328A4208D1616A00F4701002
:1019D000884203D1002002B0BDE8F081012002B0AE
:1019E000BDE8F081A069002862D00020C4F2422046
:1019F0000121C0F88014FFF765FD0546706A800775
:101A000000F18C80FFF75EFD401B0228F6D92AE129
:101A1000F06910F0805808D1F06940F08050F06112
:101A2000F06900F080500090009847F20007C4F27F
:101A300000073868C00529D4386840F480703860E1
:101A4000FFF740FD054600BF3868C0051ED4FFF70C
:101A500039FD401B6428F7D905E100BF2069002843
:101A600040F20000C4F2422000F0828001210160B7
:101A7000FFF728FD054600BF306880073FF588AFB7
:101A8000FFF720FD401B0228F6D9ECE0E0680028B3
:101A900000F08080052800F09780012800F09880F1
:101AA000306A20F001003062306A20F0040092E0D9
:101AB0000020C4F242200021C0F88014FFF702FD8C
:101AC000054600BF706A80077FF56CAFFFF7FAFC30
:101AD000401B0228F6D9C6E00027C4F242270020A6
:101AE0003866FFF7EFFC022D05460BD13068800108
:101AF00040F1BE80FFF7E6FC401B02284FF00300D8
:101B0000F4D968E7306880017FF564AFFFF7DAFC4D
:101B1000401B02284FF00300F4D95CE740F20800B4
:101B2000C2F20000006844F6D351C1F26201A0FB8A
:101B30000101480A019000BF00BF0198411E002822
:101B400001913FF42FAF00BF0198411E0028019181
:101B50003FF428AF00BF0198411E002801913FF4D7
:101B600021AF00BF0198411E00280191E4D119E77F
:101B700000210160FFF7A6FC054600BF3068800722
:101B80007FF50DAFFFF79EFC401B02284FF00300CE
:101B9000F4D920E7306A20F001003062306A20F08A
:101BA00004003062FFF78EFC054641F2883700BF23
:101BB000306A800720D5FFF785FC401BB8424FF004
:101BC0000300F5D907E700BF306A40F00400306237
:101BD000306A40F001003062FFF774FC054641F2C4
:101BE000883700BF306A800706D4FFF76BFC401BC4
:101BF000B842F7D937E000BFB8F1000F7FF4D5AE97
:101C0000F06920F08050F061CFE600BF306820F42A
:101C100080303060306820F480203060FFF752FC64
:101C2000054600BF306880037FF59DAEFFF74AFC94
:101C3000401B64284FF00300F4D9CCE6306840F430
:101C400080203060306840F480303060FFF73AFC2C
:101C5000054600BF306880033FF585AEFFF732FCD4
:101C6000401B6428F6D9032002B0BDE8F08100BF14
:101C7000206AB0F5803F05D17168A26821F4003177
:101C8000114371607168626A21F474111043084352
:101C9000706001203866FFF715FC0446306880014B
:101CA0003FF598AEFFF70EFC001B02284FF0030033
:101CB000F4D990E6704700007047000010B590F826
:101CC0003C20012A4FF0020233D080F83D20026808
:101CD000D2F804E0D2F808C00C682EF07003234359
:101CE00040F2FF74C4F20004A24253600ADCB2F175
:101CF000804F13D040F20043C4F200039A420DD04B
:101D000011E000BF42F60043C4F201039A4205D03D
:101D100040F60003C4F200039A4204D149682CF053
:101D20008003194391600121002280F83D1080F862
:101D30003C20104610BD0000002804BF0120704761
:101D400010B5044690F83D0028B9002084F83C0006
:101D5000204600F06FF8022084F83D00206840F231
:101D6000FF730268C4F2000342F6004C9842C4F2CA
:101D7000010C15DCB0F1804F1AD040F20041C4F2E2
:101D80000001884214D0984218DCB0F1804F1DD079
:101D900040F20041C4F20001884217D01AE000BFAF
:101DA000604505D040F60001C4F200018842EAD146
:101DB000A16822F070020A439842E6DD604505D032
:101DC00040F60001C4F20001884203D1216922F4E7
:101DD00040720A43A36922F08001D4F804E0E2686B
:101DE000194360450160C262C0F828E002D1616910
:101DF000CCF83010012141610269D20703D0026999
:101E000022F001020261002084F8461084F83E109E
:101E100084F83F1084F8401084F8411084F8421090
:101E200084F8431084F8441084F8451084F83D1079
:101E300010BD000080B582B00068B0F1804F1CBFBB
:101E400002B080BD41F21C00C4F202000168002211
:101E500041F0010101600068062100F001000190DD
:101E600001981C20FFF7E6FB1C2002B0BDE8804073
:101E7000FFF7D0BB90F83D1001291CBF012070472F
:101E8000022180F83D10006840F2FF72C168C4F280
:101E90000002904241F00101C16009DCB0F1804FC5
:101EA00012D040F20041C4F2000188420CD012E08E
:101EB00042F60041C4F20101884205D040F600011B
:101EC000C4F20001884206D1816801F007010629A9
:101ED00004BF00207047016841F00101016000204B
:101EE0007047000080B590F83C20012A4FF00202B4
:101EF00000F0C28080F83D20D0F800C04FF6777225
:101F0000DCF8083023EA0202CCF808200B684F2BDB
:101F100028DC1F2B44DD202B45D0302B43D0402B19
:101F200040F0AC80D1F804E0C968DCF82030DCF87F
:101F3000202022F00102CCF82020DCF8182022F02A
:101F4000F00242EA011123F00A0242EA0E02CCF842
:101F50001810CCF82020DCF8081041F0470121F0DF
:101F6000300180E06F2B27DDB3F5005F48D0B3F57B
:101F7000805F7AD0702B40F08180D1E901E3C9689D
:101F8000DCF8082043EA0E0322F47F4243EA0121F1
:101F90001143CCF80810DCF8081041F0770162E03A
:101FA0000BB1102B6AD1DCF8081021F07001194335
:101FB00041F0070157E000BF502B35D0602B5DD1B9
:101FC000D1F804E0C968DCF82030DCF8202022F0E9
:101FD0001002CCF82020DCF8182022F4704242EAEB
:101FE000013123F0A00242EA0E12CCF81810CCF80E
:101FF0002020DCF8081041F0670121F0100132E0E8
:10200000D1E901E3C968DCF8082043EA0E0322F4B1
:102010007F4243EA01211143CCF80810DCF8081094
:1020200041F480411FE000BFD1F804E0C968DCF84A
:102030002030DCF8202022F00102CCF82020DCF84F
:10204000182022F0F00242EA011123F00A0242EACB
:102050000E02CCF81810CCF82020DCF8081041F063
:10206000570121F02001CCF808100022012180F84E
:102070003D10002180F83C10104680BD0122F5E79C
:102080007047000070B504460068C5680669B1076E
:1020900016D515F0020113D06FF002010161012184
:1020A00021778069800703D02046FFF7E9FF05E02C
:1020B000204600F08FF8204600F08EF800202077B0
:1020C000700719D515F0040016D020686FF00401D0
:1020D000016102212177806910F4407F04D02046FD
:1020E000FFF7CEFF06E000BF204600F073F8204661
:1020F00000F072F800202077300717D515F008009F
:1021000014D020686FF00801016104212177C069B3
:10211000800703D02046FFF7B3FF05E0204600F01C
:1021200059F8204600F058F800202077F00619D51D
:1021300015F0100016D020686FF010010161082121
:102140002177C06910F4407F04D02046FFF798FF44
:1021500006E000BF204600F03DF8204600F03CF8C5
:1021600000202077F00718BF15F0010002D13006DB
:1021700009D412E020686FF001010161204600F0EF
:102180002DF8300609D515F0800006D020686FF0D4
:10219000800101612046FFF78DFD700609D515F01D
:1021A000400006D020686FF040010161204600F039
:1021B0001FF8B00658BF70BD15F0200008D0216888
:1021C0006FF0200220460A61BDE87040FFF774BD41
:1021D00070BD00007047000070470000006842F6C4
:1021E0000041C4F20101884208BFFFF771B970478E
:1021F000704700007047000010B504460068416950
:1022000094F84120212A58D111F0800155D000BF07
:1022100050E8050F216820F0800041E80502EAB18E
:10222000206850E8050F216820F0800041E8050291
:10223000A2B1206850E8050F216820F0800041E835
:1022400005025AB1206850E8050F216820F080008F
:1022500041E8050212B12068DAE700BFA06B002850
:1022600018BFFEF737FE00BF206850E8030F216853
:1022700020F0C00041E80302DAB1206850E8030F03
:10228000216820F0C00041E8030292B1206850E8C4
:10229000030F216820F0C00041E803024AB1206822
:1022A00050E8030F216820F0C00041E80302002A33
:1022B000DAD1202084F841002068416994F8422056
:1022C000222A40F0A98011F0400100F0A58000BF53
:1022D00050E8050F216820F0400041E80502EAB10E
:1022E000206850E8050F216820F0400041E8050211
:1022F000A2B1206850E8050F216820F0400041E8B5
:1023000005025AB1206850E8050F216820F040000E
:1023100041E8050212B12068DAE700BFE06B00284F
:1023200018BFFEF7D7FD00BF206850E8030F2168F3
:1023300020F4907041E80302BAB3206850E8030F1C
:10234000216820F4907041E8030272B3206850E8DD
:10235000030F216820F4907041E803022AB320683B
:1023600050E8030F216820F4907041E80302002A2E
:10237000DAD11AE0206850E8050F216820F001004A
:1023800041E80502DAB1206850E8050F216820F025
:10239000010041E8050292B1206850E8050F21686C
:1023A00020F0010041E805024AB1206850E8050F1D
:1023B000216820F0010041E80502002ADAD1206BF3
:1023C000012824D1206850E8030F216820F0100074
:1023D00041E80302DAB1206850E8030F216820F0D9
:1023E000100041E8030292B1206850E8030F216811
:1023F00020F0100041E803024AB1206850E8030FC2
:10240000216820F0100041E80302002ADAD12020E0
:1024100084F8420000202063002010BD70470000B7
:10242000B0B582B0044600680168C368426901F033
:102430002F05202D03F0200506D12DB1204602B036
:10244000BDE8B04001F02ABD5FEA017C1EBF02F08A
:10245000010E03F4907212EB0E0255D1226B012A89
:1024600005D111F0100218BF13F0100236D10A0680
:1024700022D513F080021FD094F84110212941D1B8
:10248000A168B1F5805F03D12169002900F0728253
:10249000216A4A1C226209784160E18C01390A04F0
:1024A000E1842FD1C16821F08001C160C16841F091
:1024B0004001C16002B0B0BD490623D513F0400110
:1024C00020D0C16821F04001C1602021204684F85D
:1024D000411002B0BDE8B04000F02ABD00210191DA
:1024E000016801914168019101994169490600F132
:1024F0008F80A18DE28DE38D002B1CBF891A5FEACE
:1025000001420CD102B0B0BDCA0718BF13F48072EB
:1025100040F038814A0700F13B8140E1206850E8F3
:10252000030F226820F4907042E80303DBB12068B7
:1025300050E8030F226820F4907042E8030393B13F
:10254000206850E8030F226820F4907042E80303EB
:102550004BB1206850E8030F226820F4907042E8E5
:102560000303002BDAD1206850E8050F226820F021
:10257000010042E80503DBB1206850E8050F22683E
:1025800020F0010042E8050393B1206850E8050FF0
:10259000226820F0010042E805034BB1206850E8B2
:1025A000050F226820F0010042E80503002BDAD174
:1025B000202084F8420000202063206850E8030FA8
:1025C000226820F0100042E80303DBB1206850E8E5
:1025D000030F226820F0100042E8030393B1206843
:1025E00050E8030F226820F0100042E803034BB1CB
:1025F000206850E8030F226820F0100042E803032F
:10260000002BDAD1022289B220466263B4E000BF17
:10261000E16B0A68526893B2002B3FF473AFA58D4B
:10262000AB42BFF46FAFE2858969202900F09D803D
:1026300050E8030F216820F4807041E80302EAB1FA
:10264000206850E8030F216820F4807041E80302FD
:10265000A2B1206850E8030F216820F4807041E89F
:1026600003025AB1206850E8030F216820F48070FB
:1026700041E8030212B12068DAE700BF206850E8A1
:10268000050F216820F0010041E80502DAB1206859
:1026900050E8050F216820F0010041E8050292B1E1
:1026A000206850E8050F216820F0010041E805028C
:1026B0004AB1206850E8050F216820F0010041E888
:1026C0000502002ADAD1206850E8050F216820F0C1
:1026D000400041E80502DAB1206850E8050F2168A2
:1026E00020F0400041E8050292B1206850E8050F53
:1026F000216820F0400041E805024AB1206850E816
:10270000050F216820F0400041E80502002ADAD1D7
:10271000202084F8420000202063206850E8030F46
:10272000216820F0100041E80302DAB1206850E887
:10273000030F216820F0100041E8030292B12068E5
:1027400050E8030F216820F0100041E803024AB16D
:10275000206850E8030F216820F0100041E80302D0
:10276000002ADAD1E06BFEF7B5FB02206063A08D92
:10277000E18D401A81B2204602B0BDE8B040FFF7BB
:1027800039BD00BF626C42F0010262644A0706D59F
:10279000BEF1000F03D0626C42F0020262648A074D
:1027A00006D5BEF1000F03D0626C42F004026264F1
:1027B000BCF1000F06D555EA0E0203D0626C42F060
:1027C00008026264626C002A3FF49CAE11F02001A2
:1027D00018BF002D03D0204601F060FB206841693E
:1027E000626C01F0400102F00802891800F0A2803A
:1027F00050E8030F216820F4907041E80302C2B34F
:10280000206850E8030F216820F4907041E803022B
:102810007AB3206850E8030F216820F4907041E8F3
:10282000030232B3206850E8030F216820F490704F
:1028300041E80302EAB12068DAE700BF206850E807
:10284000050F216820F0010041E80502DAB1206897
:1028500050E8050F216820F0010041E8050292B11F
:10286000206850E8050F216820F0010041E80502CA
:102870004AB1206850E8050F216820F0010041E8C6
:102880000502002ADAD1206B012824D1206850E803
:10289000030F216820F0100041E80302DAB120683C
:1028A00050E8030F216820F0100041E8030292B1C4
:1028B000206850E8030F216820F0100041E803026F
:1028C0004AB1206850E8030F216820F0100041E869
:1028D0000302002ADAD1202084F84200002020637D
:1028E0002068416949063FD550E8050F216820F06E
:1028F000400041E805022AB3206850E8050F21682E
:1029000020F0400041E80502E2B1206850E8050FE0
:10291000216820F0400041E805029AB1206850E8A3
:10292000050F216820F0400041E8050252B12068FF
:10293000DAE700BF2046FFF771FD0020606402B0B7
:10294000B0BD00BFE06B78B143F6E521C0F60001F1
:102950004163FEF7E3FA00283FF4D4ADE06B416B2E
:1029600002B0BDE8B0400847204602B0BDE8B04024
:10297000FFF754BD216A31F8022B6FF35F224260EA
:1029800021628AE5002804BF0120704710B5044683
:1029900090F8410028B9002084F84000204600F05B
:1029A00061F8242084F841002068D4E90212C36849
:1029B00023F40053C360036923F440531A430261B4
:1029C000D4E904231143C268194341F20C639A43CA
:1029D0001143C1604169A26921F44071114343F67A
:1029E0000002C4F201029042416103D0FEF760FF91
:1029F00002E000BFFEF770FF6268192148439100B2
:102A0000B0FBF1F048F21F51C5F2EB11A0FB01231E
:102A10005A096FF0630302FB0300322303EB00103B
:102A2000A0FB0101F02303EA5113206803EB02121B
:102A3000C1F3431111448160016921F490410161A6
:102A4000416921F02A014161C16841F40051C1602E
:102A500000202021606484F8411084F842106063F3
:102A600010BD00002DE9F04385B00446006844F233
:102A70000041C4F20001002788420497CDE90277A3
:102A8000019779D044F60001C4F20001884200F0B9
:102A9000DD8043F60001C4F20101884240F02C8140
:102AA00041F21800C4F20200016840F6000541F44A
:102AB000804101600168C4F2010501F48041009188
:102AC0000099016801AE41F004010160006840F224
:102AD000300800F00400009000984FF4007001905E
:102AE000022002900320049028463146C4F20208D6
:102AF000FEF7D0FB4FF48060019000272846314656
:102B0000CDE90277FEF7C6FB40F6F01508F1280084
:102B1000C2F2000580264FF44059C5E90007284657
:102B2000C5E90276C5E90477C5E90679FEF720FB19
:102B3000002818BFFDF7E2FDE5636C6240F634251E
:102B400008F11400C2F20005102185E88300284630
:102B5000C5E90367C5E90577C5F81C90FEF708FBD2
:102B6000002818BFFDF7CAFDA5636C62252005216A
:102B700000222524BBE000BF41F21800C4F202008D
:102B8000416840F6000541F4003141604168C4F2FB
:102B9000010501F4003100910099016801AE41F096
:102BA00004010160006840F2300800F00400009069
:102BB00000980420019002200290032004902846EF
:102BC0003146C4F20208FEF765FB0820CDE9010793
:102BD000284631460397FEF75DFB40F6BC2508F119
:102BE0005000C2F20005102180264FF4805985E87C
:102BF00083002846C5E90367C5E90577C5F81C9039
:102C0000FEF7B6FA002818BFFDF778FDA5636C62E1
:102C100040F6782508F13C00C2F200050021C5E924
:102C200000012846C5E90216C5E90411C5E90619DF
:102C3000FEF79EFA002818BFFDF760FDE5636C62A1
:102C4000262006210022262451E000BF41F2180070
:102C5000C4F20200416801AE41F480214160416844
:102C600001F4802100910099016841F008010160A0
:102C70000068314600F00800009000984FF4806032
:102C80000190022002900320049040F60000C4F25C
:102C9000010000F580652846FEF7FCFA4FF400605D
:102CA0000190002728463146CDE90277FEF7F2FA77
:102CB00040F600353020C2F20005C4F20200802147
:102CC0004FF44052C5E900072846C5E90271C5E93D
:102CD0000477C5E90672FEF74BFA002818BFFDF726
:102CE0000DFDE5636C622720052100222724FEF7F5
:102CF000A1FC2046FEF78EFC05B0BDE8F083000085
:102D000070B582B0044690F8420020280AD11346DC
:102D10000A4600294FF0010018BF002B06D102B06F
:102D200070BD00BF022002B070BD00BF0025222090
:102D30002563A262A385656484F842002168E06B84
:102D400043F66D4C43F6CD5E43F6F126C0F6000C1B
:102D5000C0F6000EC0F600060431C0E90ACEC0E994
:102D60000C65FEF749FA01952068016801914168F8
:102D700001910199216929B350E8030F216840F4BA
:102D8000807041E80302EAB1206850E8030F21682F
:102D900040F4807041E80302A2B1206850E8030FBC
:102DA000216840F4807041E803025AB1206850E87D
:102DB000030F216840F4807041E8030212B12068DB
:102DC000DAE700BF206850E8050F216840F00100F5
:102DD00041E80502E2B1206850E8050F216840F0A3
:102DE000010041E805029AB1206850E8050F21680A
:102DF00040F0010041E8050252B1206850E8050F9B
:102E0000216840F0010041E80502002ADAD100BF44
:102E1000206850E8050F216840F0400041E80502B5
:102E2000DAB1206850E8050F216840F0400041E821
:102E3000050292B1206850E8050F216840F040007B
:102E400041E805024AB1206850E8050F216840F0CA
:102E5000400041E80502002ADAD1002002B070BD2E
:102E6000704700007047000070B5044690F84100BC
:102E700020281CBF022070BD00294FF0010553D04F
:102E80001346002A50D0002521202162A384E38428
:102E9000656484F841002268A06B43F6E55C43F664
:102EA000956E43F6F126C0F6000CC0F6000EC0F693
:102EB00000060432C0E90ACEC0E90C65FEF79CF9B1
:102EC00020686FF0400140F8141B50E8000F2168A3
:102ED00040F0800041E8050232B300BF206850E8AE
:102EE000050F216840F0800041E80502F2B120683A
:102EF00050E8050F216840F0800041E80502AAB1C2
:102F0000206850E8050F216840F0800041E8050284
:102F100062B1206850E8050F216840F0800041E868
:102F20000502002ADAD10025284670BD002070BDB8
:102F30007047000070470000FEE700002DE9F047F1
:102F400092B0044646F21C70C0F600008268D0E9D8
:102F500000101192CDE90F1046F20470C0F6000087
:102F60008268D0E9001043F23336CDE90C10002717
:102F700044F200010E9204F2FE604FF0F70A0225BF
:102F8000C3F63376C4F27A47C4F29C610FAB0022D9
:102F9000CDE90077CDE902660495CDF814A000F0E4
:102FA000D9FB002144F2000840F20009C4F2FA41C2
:102FB000C4F21C68C4F2482904F5D060CDE90017BA
:102FC0000CAB41464A46CDE902660495CDF814A003
:102FD00000F0C0FB46F22870C0F600008268D0E91D
:102FE00000100B92CDE9091046F21070C0F60000F7
:102FF0008268D0E900100892CDE9061046F200017F
:1030000004F2BE50C4F26A6109AB0022CDE9007738
:10301000CDE902660495CDF814A000F09BFB04F501
:10302000A86006AB41464A46CDE90077CDE9026685
:103030000495CDF814A000F08DFB002012B0BDE87F
:10304000F087000010B540F6C81046F20041C2F209
:103050000000C4F20001022200234FF0807480E8D7
:103060000E0000F10C014FF4402C4FF4401E81E89B
:10307000085084618383FDF7F3FD002808BF10BD6D
:10308000BDE81040FDF73ABB80B582B041F21400B4
:10309000C4F202000168002241F0010101600068F1
:1030A000052100F00100019001980D20FEF7C2FA01
:1030B0000D20FEF7AFFA0E2005210022FEF7BAFA26
:1030C0000E20FEF7A7FA0F2005210022FEF7B2FA24
:1030D0000F20FEF79FFA102005210022FEF7AAFA22
:1030E0001020FEF797FA112005210022FEF7A2FA20
:1030F000112002B0BDE88040FEF78CBAF0B599B05F
:103100000020CDE9160016A801F044F940F270073E
:10311000C2F20007386046F23470C0F6000090E852
:103120007E0080690DF13C0C8CE87E0015900FA8A4
:10313000002101F037F9786046F25070C0F60000C7
:1031400090E84E00D0E9045480690DF1200C8CE821
:103150004E000E9008A80021CDE90C5401F022F990
:10316000B86046F26C70C0F6000090E84E00D0E9FE
:10317000045480690DF1040C8CE84E00079001A8FE
:103180000021CDE9055401F00DF9F86019B0F0BD4A
:10319000B0B584B041F21800C4F20200016840F6F4
:1031A000004441F0100101600168C4F2010401F023
:1031B0001001009100990168002241F02001016096
:1031C00001684FF4405501F0200100910099016819
:1031D00041F004010160016801F0040100910099CF
:1031E000016841F00801016000684FF4405100F0AF
:1031F0000800009000982046FEF75EF90120CDE916
:10320000010003200390694620460095FEF742F82E
:1032100004B0B0BD80B586B040F68C300021C2F25B
:10322000000041F2873C0591CDE90311CDE9001181
:103230004FF0804241F61F43C0E9021C016180212A
:10324000C0E900238161FEF777FD002818BFFDF774
:1032500055FA4FF48050029040F68C30C2F20000D4
:1032600002A9FEF73FFE002818BFFDF747FA40F617
:103270008C30C2F200006946FEF720FD002818BF1E
:10328000FDF73CFA06B080BD80B540F6D43043F679
:103290000001C2F20000C4F2010100234FF00C0C47
:1032A0004FF4E13280E80E00C0E90333C0E905C302
:1032B000C361FFF767FB002808BF80BDBDE8804001
:1032C000FDF71CBA80B540F61C4044F20041C2F242
:1032D0000000C4F2000100234FF00C0C4FF4E13267
:1032E00080E80E00C0E90333C0E905C3C361FFF7FE
:1032F00049FB002808BF80BDBDE88040FDF7FEB94E
:1033000010B540F6644044F6000C48F2A062C2F2E8
:103310000000C4F2000CC0F201024FF480530021FF
:103320004FF4806E0C24C0E900C2C0E90231C0E94C
:1033300004E4C0E90611FFF725FB002808BF10BD13
:10334000BDE81040FDF7DAB9FEE700008289038A84
:1033500042810A88C38112BA120C82814A8812BA49
:10336000120C02828A8812BA120C42828979017583
:1033700070470000B0F90A20B0F90C108B1A13F551
:10338000805F07DA828D0132828512B201EB423111
:1033900081617047828DB3F5805FC4BF013A828539
:1033A00012B201EB4231816170470000FEE700007C
:1033B0002DE9F04F81B0044690F96C001646B0F14B
:1033C000FF3F0D463DDC206C41F26F21676BC3F679
:1033D000832103F055F80146384602F098FE80BB81
:1033E00027684BF2177127F00040C3F6D10102F0B5
:1033F0008EFE30BB2169384603F00EF9394602F0E3
:1034000099FE43F2333120F00040C3F6737102F0AD
:1034100069FE002804F16D0010D001684268013196
:1034200040F2F51342F10002CB1A016072F1000183
:10343000426024BF012084F8750002E00021416051
:1034400001604FF07E506066304629462561266057
:1034500003F0E2F8D4F87610A06109B1204688475D
:10346000A06EE0B9A7696068A668E568394603F010
:1034700007F860623846314603F002F8666E31465E
:1034800002F0FEFFE1692063384603F0C5F801460B
:10349000284602F0F5FF314602F04CFEE062D4F817
:1034A0007A1009B12046884794F86C905FEA497019
:1034B00019D5A06EA56820B14168284602F0A2FD8A
:1034C0000546A069E169666E02F09CFD4FF07C51F3
:1034D00002F0D6FF0146284602F0D2FF01463046F0
:1034E00002F0CEFF20635FEA89602CD5A669A16A4D
:1034F000304602F0C5FF002102F002FE18BB656DE8
:1035000026F000473846294602F0FAFDD8B9266D64
:103510002846314602F076FD0146384602F0E2FDCB
:1035200010B100200EE000BF3046394603F074F8B9
:103530000146284602F066FD314602F0FBFD216B94
:1035400002F09EFF20635FEA89700DD45FEA496054
:1035500022D45FEAC97041D1D4F824B0A56AD4F866
:103560002C80D4F830A087E0A06EE56820B1816897
:10357000284602F047FD054621696069666E03F042
:103580004BF80146284602F07BFF314602F0D2FD9F
:10359000E0625FEA4960DCD5676EE06AD4F83C809F
:1035A000E66D394602F06CFF05463846314602F0BA
:1035B00029FD07462846394602F0BCFD054630463F
:1035C000414602F05DFF394602F0B4FD014628464F
:1035D00002F018FDE0625FEAC970BDD0A56AD4F8B8
:1035E00030A0D4F824B0E66A2846514602F00AFD1D
:1035F00080462846594602F005FD3146009602F005
:1036000001FD216C20F0004002F07AFD60B9A16953
:10361000284602F035FF0021002602F071FD002847
:1036200004BF26634FF0000A666C4046314602F044
:1036300059FD002818BF354686F00046074640462B
:10364000314602F064FD002818BF3546002F18BF30
:103650004FF0000A002818BF4FF0000A47B9404653
:10366000314602F046FD002808BFC4F830A001E052
:10367000C4F830A0DDF800805046294602F0C2FCB4
:103680005946A06202F0BEFC414602F0BBFC064671
:103690005FEAC96066631FD5656ED4F83890A76D80
:1036A0003046294602F0ECFE06462846394602F02E
:1036B000A9FC05463046294602F03CFD0646384640
:1036C000494602F0DDFE294602F034FD014630464F
:1036D00002F098FC06466063276C3046394602F0DB
:1036E00001FD0028354687F0004918BF3D4604D14A
:1036F0002846494602F0FDFC40B92846494602F0FA
:1037000006FD002818BF4D462E46656358463946CB
:1037100002F0E8FC002818BFBB4604D158464946D1
:1037200002F0E7FC40B95846494602F0F0FC002898
:1037300018BFCB46C4F824B02069A1696061A663B4
:10374000C4F83C80E1613046C4F820A001B0BDE877
:10375000F08F0000B0B501640021426401601A6876
:10376000DDF824C042605A68DDF81CE08260069CE7
:10377000059D9A68049BC260016303654565846585
:10378000C0F85CE0016680F86CC0C0F87110C0F849
:103790006D1080F875104163B0BD0000000000009E
:1037A000EFF30980BFF36F8F0D4B1A6820E9F00F1C
:1037B00010602DE908404FF0500080F3118801F0AF
:1037C000B9FD4FF0000080F31188BDE8084019688A
:1037D0000868B0E8F00F80F30988BFF36F8F704777
:1037E000800000204268C2F301320A734268C2F3CB
:1037F00081324A7302886FF3DF22A2F580624A8029
:103800000268C2F3CA22A2F580628A80D0E900234E
:10381000920D42EA83226FF3DF22A2F58062CA8012
:103820004268C2F34A02A2F580620A81008A6FF3FD
:10383000DF20A0F580604881704700002DE9F04747
:10384000144603283AD0022879D1487B012879D040
:10385000032818BFBDE8F087B1F90800B1F9068068
:1038600002F07AFD49F6A631C3F6443102F008FEB3
:10387000D4E90017D4E9025902F0C4FB39460646E0
:1038800002F030FC002818BF3E463046294602F0C0
:103890003EFC0028404618BF2E46266002F05CFD24
:1038A00046F24201CBF6E53102F0EAFD0146484618
:1038B00002F0A8FBE060BDE8F08700BF40F27011A5
:1038C000C2F2000140F20008D1E9070AC4F2B4389C
:1038D000D1F82890414602F02DFC4FF08C4102F0C7
:1038E000CFFDD4E901670546314602F0FBFB002815
:1038F00018BF35462846394602F009FC00285046D4
:10390000414618BF3D46256002F014FC41F26F218C
:103910000546C3F68321484602F0B2FD4FF08C41C4
:1039200002F0AEFD414602F005FC064628464FF087
:103930008C4102F0A5FD314602F064FBE060BDE879
:10394000F08700BF40F27011C2F2000191F832001E
:10395000B0B10027D1E90706C4F2B437394602F006
:10396000E9FB4FF08C4102F08BFD054630463946AD
:1039700002F0E0FB4FF08C4102F082FD0EE000BF50
:1039800040F20820C2F20000D0F81865D0F85806BE
:1039900002F0E2FC0546304602F0DEFCD4E90167A5
:1039A000E0602846314602F09DFB002818BF3546EE
:1039B0002846394602F0ABFB002818BF3D4625607B
:1039C000BDE8F087000000000000000000000000DB
:1039D000074B19680868B0E8F00F80F30988BFF357
:1039E0006F8F4FF0000080F311884EF00D0E70477E
:1039F00080000020FCF714FD40F60044C4F20104EE
:103A000020464FF48051FDF74FFD4FF4FA7000F05F
:103A1000B3FCF5E740F2D014C2F2000440F20826ED
:103A200040F6881704F12C05C2F20006C2F2000726
:103A30002846FCF7A3FDA061FCF7CAFD6062304692
:103A400000F076FB2046314600F0FEFB03203946AD
:103A50002246FFF7F3FE012000F08EFCE8E70000AD
:103A600040F2D017C2F2000740F6881540F27016F7
:103A700007F13004C2F20005C2F200062046FCF74E
:103A80007DFDF8612846FCF733FD304600F020FB51
:103A9000012000F071FCF1E780B54FF0500080F399
:103AA0001188BFF36F8FBFF34F8F02F0C1F830B1B1
:103AB0004EF60450CEF200004FF08051016000201D
:103AC00080F3118880BD00007047000040F644304C
:103AD000C2F20000FEF7D6BA40F68C30C2F2000007
:103AE000FEF7D0BA406A0021C185C184FEF796BCBA
:103AF000406A01684A6990F84130212B2ED112F0BA
:103B000080022BD00022C28451E8031F026821F0FA
:103B1000C00142E80313EBB1016851E8031F0268DA
:103B200021F0C00142E80313A3B1016851E8031F6B
:103B3000026821F0C00142E803135BB1016851E85B
:103B4000031F026821F0C00142E8031313B10168AA
:103B5000DAE700BF202180F8411001684A6990F837
:103B60004230222B7CD112F0400279D00022C28553
:103B700051E8031F026821F4907142E80313C3B3B4
:103B8000016851E8031F026821F4907142E80313B1
:103B90007BB3016851E8031F026821F4907142E889
:103BA000031333B3016851E8031F026821F49071D5
:103BB00042E80313EBB10168DAE700BF016851E89E
:103BC000051F026821F0010142E80513DBB101681D
:103BD00051E8051F026821F0010142E8051393B185
:103BE000016851E8051F026821F0010142E8051350
:103BF0004BB1016851E8051F026821F0010142E85C
:103C00000513002BDAD1016B012924D1016851E899
:103C1000031F026821F0100142E80313DBB10168C1
:103C200051E8031F026821F0100142E8031393B129
:103C3000016851E8031F026821F0100142E80313F4
:103C40004BB1016851E8031F026821F0100142E8FE
:103C50000313002BDAD1202180F8421000210163E8
:103C6000416C41F010014164FEF7D8BB0168406A25
:103C70000968890600F19F800021C185016851E82B
:103C8000031F026821F4807142E80313E3B1016865
:103C900051E8031F026821F4807142E803139BB1CD
:103CA000016851E8031F026821F4807142E80313A0
:103CB00053B1016851E8031F026821F4807142E8A2
:103CC0000313002BDAD100BF016851E8051F026819
:103CD00021F0010142E80513BBB3016851E8051F5B
:103CE000026821F0010142E8051373B3016851E84D
:103CF000051F026821F0010142E805132BB301689A
:103D000051E8051F026821F0010142E80513002B6C
:103D1000DAD11AE0016851E8051F026821F040017C
:103D200042E80513DBB1016851E8051F026821F084
:103D3000400142E8051393B1016851E8051F02688C
:103D400021F0400142E805134BB1016851E8051F1D
:103D5000026821F0400142E80513002BDAD120214E
:103D600080F84210016B012925D100BF016851E89C
:103D7000031F026821F0100142E80313DBB1016860
:103D800051E8031F026821F0100142E8031393B1C8
:103D9000016851E8031F026821F0100142E8031393
:103DA0004BB1016851E8031F026821F0100142E89D
:103DB0000313002BDAD100214163016B012918BFE5
:103DC000FFF74EB8818DFEF715BA0000406A012159
:103DD0004163016B012918BFFFF744B8818D490881
:103DE000FEF708BA0168406A0968890648BFFFF70C
:103DF0009FB80021C18400BF016851E8051F026817
:103E000021F0800142E8051383B3016851E8051FE2
:103E1000026821F0800142E805133BB3016851E8D4
:103E2000051F026821F0800142E80513F3B1016823
:103E300051E8051F026821F0800142E80513002BBC
:103E4000DAD113E0016851E8031F026841F0400134
:103E500042E80313002B08BF7047016851E8031FB5
:103E6000026841F0400142E8031393B1016851E850
:103E7000031F026841F0400142E803134BB101689F
:103E800051E8031F026841F0400142E80313002B90
:103E9000D8D17047406AFFF74DB8000081B090F864
:103EA0004210222920D18368B3F5805F08D10169CF
:103EB000002965D000F128010A6803685B680AE000
:103EC000014651F8282F13B90369002BF5D0036878
:103ED0005B6803F07F0313700A6801320A60C18DCA
:103EE00001390A04C18501D001B070470168CA6870
:103EF00022F02002CA60CA6822F48072CA604A694D
:103F000022F001024A61202280F84220002242630E
:103F1000036B012B3ED1026351E8031F026821F0BD
:103F2000100142E803130168DBB151E8031F026886
:103F300021F0100142E80313016893B151E8031F17
:103F4000026821F0100142E8031301684BB151E807
:103F5000031F026821F0100142E803130168002BDF
:103F6000DAD10A68D20606D5002200920A680092C9
:103F7000496800910099818D01B0FEF73BB900BFFF
:103F80000168826A49686FF35F2122F8021B82622E
:103F9000A5E700BF01B0FEF763BF000010B540F613
:103FA000D434C2F200042046FEF73AFA2046BDE8B7
:103FB000104000F02BB8000010B540F61C44C2F2CF
:103FC00000042046FEF72CFA2046BDE8104000F021
:103FD0001DB8000010B540F66444C2F2000420464B
:103FE000FEF71EFA2046BDE8104000F00FB80000B2
:103FF00040F6C810C2F20000FCF702BD40F6C8103F
:10400000C2F20000FCF7FCBCFEE70000F0B583B094
:104010000446006844F20047C4F20007B8422DD0BD
:1040200007F58061884251D140F66440C2F2000039
:1040300000680168C90649D500250195016840F668
:10404000644401914068C2F2000401900198204646
:10405000FEF7D2F840F68811C2F200010D8040F25E
:104060005815C2F200052846FFF7BCFB204629463A
:10407000132203B0BDE8F040FEF742BE40F61C40FC
:10408000C2F2000000680168C9061FD50021029134
:10409000016840F61C4502914068C2F2000502909A
:1040A00002982846FEF7A8F840F27016C2F2000601
:1040B0003046314600F01CF8284631461522FEF7FE
:1040C0001FFE206807F580618842ADD003B0F0BDC7
:1040D000018ECA087C2A4FF000029CBF0131018684
:1040E000B1F57A7F38BF012280F832207047000096
:1040F00001220A860278CD2A0A761EBFFF2040B22E
:104100007047D0F80120CA61D0F805200A62D0F8C3
:1041100009204A62D0F80D208A62D0F81120CA62C4
:10412000407D4876DC3818BF6FF0010040B2704720
:104130002DE9F0470646D0F8580640F69814C2F22A
:10414000000402F009F94FF0645102F099F940F2CD
:104150000008C4F2B438414602F092F90546D6F898
:104160001805A56102F0F8F84FF0645102F088F9E3
:10417000414602F085F90746B6F95001B6F91090AC
:10418000E76102F0E9F840F2000AC4F2702A5146F1
:1041900001F0D0FF414602F073F90646206248461E
:1041A00002F0DAF8514601F0C5FF414602F068F925
:1041B000DC2284F82C20CD2222702A0AA2702A0C3C
:1041C000E2702A0E22713A0AA2713A0CE2713A0E9A
:1041D00040F2D0112272320AC2F20001A272320CF5
:1041E000496AE272320E2273020AC4E9090160735D
:1041F000A273020C000E2074080AA074080CE0746C
:10420000080E20754CF6DC5340F61C406570677153
:104210006672E2736174C2F2000021461622A4F8AD
:104220001530BDE8F047FEF71FBE000080B588B02E
:10423000082306930023CDE90433029102A901ABC0
:10424000FCF77AFA08B080BD70B582B005680C46FC
:10425000C1F87456C06801F5D066C1F83405D1F8CC
:10426000580602F079F8014630462A46FFF7A0F8D2
:10427000B4F9500604F2FE6502F06EF8D4F8B426E4
:1042800001462846FFF794F8D4F81805D4F83465A9
:1042900004F5A86502F060F8014628463246FFF7AB
:1042A00087F8B4F9100504F2BE5502F055F8D4F8B9
:1042B000742501462846FFF77BF8D4F8F205D4F8B8
:1042C000324702F02DF80546204602F029F8034651
:1042D00040F6C8100026C2F2000040F2FF112A4644
:1042E00000960196FCF70CF9002002B070BD0000AA
:1042F00090B0FDF7FBF800240120CDE90B44CDE997
:10430000094406900A904FF4E0104FF480310225E2
:104310000F9006A8CDE90714CDE90D51FDF7F0FA8D
:1043200020B1EFF3108072B6FEE700BF0F20CDE999
:1043300001054FF48060CDE9040401A80221039433
:10434000FDF7B4F920B1EFF3108072B6FEE700BFBD
:10435000FEF71EFFFEF798FEFEF774FEFEF75AFF0B
:10436000FEF7B0FFFEF7CCFFFEF78EFFFEF7C6FEAE
:1043700000F00AF8FEE7000080B5002808BF012021
:1043800000F092FE002080BD80B500F053FF0020B9
:1043900080BD000041680120002908BF01F098B8E5
:1043A00001F0CCB8B0B584B043698E4693B184694E
:1043B00084B10589D0E9001C026928B2843D18BF88
:1043C000C51CCDE9005360467346029401F0DEFB44
:1043D00004B0B0BD0589D0E90013028A28B2843D3B
:1043E00018BFC51C03AC184673460095019401F034
:1043F0009DFB0399012818BF0021084604B0B0BDF9
:10440000F0B581B040F28004C2F200040E46A76805
:1044100021680546081D00F087FC18B1681C0CD007
:1044200016E000BF20680121C06AE26801FA00F0CE
:1044300022EA0000E060681C0AD14EB154F8380B43
:10444000011D204601B0BDE8F04000F0DDBC00BF1A
:104450002068ED19456007D3E06A2168043101B096
:10446000BDE8F04000F09EBCA06A2168043100F075
:1044700099FCE069854238BFE56101B0F0BD0000FC
:104480002DE9F041044600F0CDFC40F28007C2F275
:104490000007786940F66C55013078613868C2F2DF
:1044A000000548B13869E8BB3868E16AC06A8842EB
:1044B00098BF3C6036E000BF3C607869012831D18C
:1044C000284600F05FFC05F1140000F05BFC05F1EC
:1044D000280000F057FC05F13C0000F053FC05F10A
:1044E000500000F04FFC05F1640000F04BFC05F1BA
:1044F000780000F047FC07F16006304600F042FC0F
:1045000041F6FC18C2F20008404600F03BFC07F1FF
:104510004C0000F037FC07F1380000F033FCBE62BD
:10452000C7F82C80F868796B012201317963E16A60
:104530008A401043F86001EB810005EB8000211DEB
:1045400000F062FC00F092FC386988B13868E16ADA
:10455000C06A884228BFBDE8F0814EF60450CEF212
:1045600000004FF080510160BFF34F8FBFF36F8F9A
:10457000BDE8F08140F66C504EF60451C2F20000E6
:10458000CEF200014FF080520368022BFCD30A6088
:10459000BFF34F8FBFF36F8FF6E700002DE9F047B1
:1045A000DDE909878246386B089C00EB82000438FD
:1045B0009946002920F0070656D0087887F834007D
:1045C000087800284BD0487887F8350048780028CC
:1045D00045D0887887F83600887800283FD0C8789A
:1045E00087F83700C878D0B3087987F83800087999
:1045F000A8B3487987F83900487980B3887987F873
:104600003A00887958B3C87987F83B00C87930B345
:10461000087A87F83C00087A08B3487A87F83D00A2
:10462000487AE0B1887A87F83E00887AB8B1C87ACB
:1046300087F83F00C87A90B1087B87F84000087B74
:1046400068B1487B87F84100487B40B1887B87F898
:104650004200887B00281CBFC87B87F843000020ED
:1046600087F8430003E000BF002087F834000025EE
:10467000381D062C28BF0624FC62C7E9114500F04E
:104680008DFB07F1180000F089FB84F00700B8618A
:10469000304651464A463F617F62FD6487F850507C
:1046A00000F032FBB8F1000F386018BFC8F8007096
:1046B000BDE8F08706480068006880F3088862B6A5
:1046C00061B6BFF34F8FBFF36F8F00DF00BF0000F5
:1046D00008ED00E081B00020009040F20C00C2F232
:1046E000000000684FF0500181F31188BFF36F8F15
:1046F000BFF34F8F013007D0FEE700BF009830B9FD
:10470000009820B9009810B900980028F6D001B0A0
:104710007047000086B040F2F40AC2F2000A4FF07F
:10472000000B0DF10C09E846DAF8080005681DB128
:10473000C068046801E000BF002400F0F3FD01F050
:1047400071FADAF810100646884220D3002DCAF814
:10475000106051D0A6424FD301F084FBDAF8080074
:10476000C068C7683D1D284600F0DEFA97F82400AF
:10477000410745D400F0FE0087F8240084E000BF24
:104780006860DAF8080039462D6100F00BFBDAF8B2
:104790000800016831B3C068C56804682F1D384639
:1047A00000F0C2FA296A2846884795F82400400795
:1047B000EDD5A8692044A042E2D8DAF8000000282C
:1047C00000F03C81CDE903B4059501F01BFADAF85D
:1047D000000049460022002300F06AFF0028D6D1DD
:1047E0002CE100BFDAF80C10CAF81060CAE9021018
:1047F00001F038FB0EE100BF65B1002210E000BF00
:10480000B8693F610119B14279601FD90AF1080006
:1048100021E000BFDAF80C000068B0FA80F042092D
:10482000DAF80000A11B00F015FC01F01BFB0028CA
:1048300040F0F0804EF60450CEF200004FF0805170
:104840000160BFF34F8FBFF36F8FE3E0311B8142F5
:1048500006D20AF10C000068294600F0A3FA13E022
:10486000DAF80000002800F00781CDE903B40597CD
:1048700001F0C8F9DAF8000049460022002300F0F0
:1048800017FF002800F0F880396A38468847C1E0F1
:104890000098002800F1BE80029E706910B1301DA2
:1048A00000F042FA01F0BEF9DAF81010074688422B
:1048B0000DD30098CAF8107009283ED9AAE000BFAD
:1048C0006860DAF8080021462D6100F06BFADAF82A
:1048D0000800016831B3C068C568D0F800802C1D9D
:1048E000204600F021FA296A2846884795F82400D6
:1048F0004007ECD5A86940444045E1D8DAF800000B
:10490000002800F09180CDE903B8059501F07AF90F
:10491000DAF8000049460022002300F0C9FE002812
:10492000D5D181E0DAF80C10E846CAE90210009807
:10493000CAF81070092800F26D80DFE800F0050564
:104940000541455F0505414596F82400019A40F070
:104950000101B06986F824108318314641F8043FFC
:10496000BB42366106D997420AF1080007D293424A
:104970000AD204E0BA1A824206D20AF10C00006898
:1049800000F010FA46E000BF316A3046884796F8DA
:10499000240040073ED5DAF80000002858D00198DE
:1049A000B16905960844CDE903B001F02BF9DAF8B6
:1049B000000049460022002300F07AFE50BB47E089
:1049C00096F8240022E000BF96F8240040F0010190
:1049D000019886F824100028B06143D0384431464D
:1049E0000AF10C0241F8040F3661B84288BF0AF19F
:1049F0000802106800F0D6F90CE000BF96F8240019
:104A0000810703D4304600F049FA03E000F0FE00CD
:104A100086F82400DAF800004146002200F05EFF2C
:104A200000287FF435AF7FE64FF0500080F3118807
:104A3000BFF36F8FBFF34F8FFEE700BF4FF0500003
:104A400080F31188BFF36F8FBFF34F8FFEE700BF76
:104A50004FF0500080F31188BFF36F8FBFF34F8F7B
:104A6000FEE700BF4FF0500080F31188BFF36F8F57
:104A7000BFF34F8FFEE700BF4FF0500080F3118867
:104A8000BFF36F8FBFF34F8FFEE70000F0B581B02B
:104A9000044600F0C7F994F94560012E0FDB04F1DC
:104AA000240500BF286850B1284601F0A1F900286C
:104AB00018BF00F053FBF0B2013E0128F2D8FF26E8
:104AC00084F8456000F0D2F900F0ACF994F9447034
:104AD000012F0EDB04F11005286850B1284601F0C3
:104AE00087F9002818BF00F039FBF8B2013F012810
:104AF000F2D884F8446001B0BDE8F04000F0B6B9E7
:104B000070B5044600F00EFC40F2301CC2F2000CFE
:104B1000DCF8040050B19CF80000002818BF4FF0EA
:104B200000404FF000057CBB8DE000BF40F6F85020
:104B3000C2F20000C21D22F0070210F00701A0EB34
:104B4000020318BF104600224FF44065CCE906026C
:104B5000002918BF03F540654119083921F0070104
:104B6000CCF80410C1E90022DCF80420091AC0E9DD
:104B7000002101208CF800004FF00040CCE9021128
:104B8000002C4FF000055ED020405CD104F11000F5
:104B900020F00702600708BF04F10802002A4FF066
:104BA000000550D0DCF8080082424CD8604650F82E
:104BB00018EFDEF8045095422BD2DEF80010B9B1A0
:104BC00074464D68954217D20B68ABB15D6895424B
:104BD00016D21868A0B14568954215D204689CB1F8
:104BE0006568954214D22168A6460029E9D110E0F3
:104BF0000CF118000DE000BF8E46204609E000BF12
:104C00009E46084605E000BF8646184601E000BF04
:104C1000A646DCF804108E4514D00168DEF800408A
:104C2000AB1A112B04604CD30EEB0205680719D0A8
:104C30004FF0500080F31188BFF36F8FBFF34F8F99
:104C4000FEE700BF002501F00DF968075AD04FF0CC
:104C5000500080F31188BFF36F8FBFF34F8F00BFF9
:104C6000FEE700BF0CF118006B60CEF8042000BF17
:104C70000368AB420AD21868A8420BD20368AB4261
:104C800004D218681A46A842F2D304E00246184635
:104C900001E000BF1A4653686C68D618AE4202D1D4
:104CA0001C44154654602B19834206D1DCF80430AD
:104CB000984202D009C823446B60AA42286018BFFA
:104CC000156001F10805DEF80400DCE90212091A9A
:104CD0009142CCF8081038BFCCF80C109CF80010AA
:104CE000002918BF40F00040CEF80400DCF81000A6
:104CF00000210130CEF80010CCF8100001F0B2F81D
:104D00006807A4D1284670BD034644F2D560C0F6BA
:104D100000004FF0807C21F0010103E90310A3F1B2
:104D2000400043F8202C7047D0E9013201699A60B5
:104D3000D1F804C082688445536008BF4A600022ED
:104D400002610868013808600868704741F610433E
:104D5000C2F20003036041F61020C2F200000860B6
:104D6000802010607047000042F2A403C2F20003EA
:104D7000036041F6A440C2F2000008604FF4807066
:104D8000106070474FF0FF31024642F8081F0021C3
:104D90004260C0E903220160704700000021016108
:104DA0007047000010B5D1F800E01EF1010213D0E9
:104DB00000F1080462681368734511D853681C68D1
:104DC000744511D85A68146874450FD8546823681C
:104DD000A4467345EED90BE00269D2F804C007E09F
:104DE0009446224604E000BF9C4601E094461A46E1
:104DF000C1F804C0CCF808108A60516008610168ED
:104E00000131016010BD0000D0F800C043680861A6
:104E10009A684B608A609A68996051600CF1010150
:104E2000016070474FF0500080F31188BFF36F8F1F
:104E3000BFF34F8F40F20C00C2F2000001684A1C21
:104E4000026009B1704700BF4EF60450CEF2000078
:104E50000068000608BF70474FF0500080F31188CB
:104E6000BFF36F8FBFF34F8FFEE7000040F20C00DF
:104E7000C2F20000016839B10139016018BF704702
:104E8000002080F3118870474FF0500080F31188A4
:104E9000BFF36F8FBFF34F8FFEE7000070B50028A0
:104EA00008BF70BD40F23015C2F2000504462878F4
:104EB00054F8041C002818BF4FF0004008420DD0E1
:104EC000A4F1080632689AB14FF0500080F31188BF
:104ED000BFF36F8FBFF34F8FFEE700BF4FF050005F
:104EE00080F31188BFF36F8FBFF34F8FFEE700BFD2
:104EF00021EA000044F8040C00F014FA54F8041CF1
:104F0000A8680844A86005F1180000BF0368B34210
:104F10000AD21868B04225D20368B34204D2186896
:104F20001A46B042F2D301E0024618465368D4183C
:104F3000B44202D11944164651607318834205D118
:104F40006B68984202D009C819447160B24230605F
:104F500018BF1660686901306861BDE8704000F0F4
:104F600081BF00BF1A465368D418B442E5D1E1E7C7
:104F70004EF21000CEF2000000210160816040F28C
:104F80000801C2F20001096844F6D352C1F262027C
:104F9000A1FB02124FF0FF3101EB9211416007219A
:104FA0000160704741F6644CC2F2000CDCF800204E
:104FB00022B3634653F8082F42B3634653F8102FC9
:104FC00052B3634653F8182F62B3634653F8202F49
:104FD00072B3634653F8282F82B3634653F8302FD9
:104FE00092B3634653F8382F002A18BF7047072240
:104FF00019600CEBC2014860704700BF0022634695
:1050000019600CEBC2014860704700BF01221960B3
:105010000CEBC20148607047022219600CEBC20120
:1050200048607047032219600CEBC201486070476A
:10503000042219600CEBC201486070470522196018
:105040000CEBC20148607047062219600CEBC201EC
:105050004860704770B515460E460446FFF7E2FEFD
:1050600094F84400FF2804BF002084F8440094F81A
:105070004500FF2804BF002084F84500FFF7F6FE36
:10508000A06B28B12046BDE87040FFF7FFBC00BF11
:1050900004F1240031462A4600F084F82046BDE899
:1050A0007040FFF7F3BC000070B500283FD040F21D
:1050B0008005C2F200050446686848B14FF0500010
:1050C00080F31188BFF36F8FBFF34F8FFEE700BFF0
:1050D000686801306860AE6828680430FFF724FE15
:1050E00050B12868A419446013D3E86A29680431D0
:1050F000FFF758FE16E000BF28680121C06AEA6881
:1051000001FA00F022EA0000E8602868A41944606F
:10511000EBD2A86A29680431FFF744FEE8698442AB
:1051200038BFEC6100F09EFE002818BF70BD4EF63F
:105130000450CEF200004FF080510160BFF34F8F5A
:10514000BFF36F8F70BD000040F28001C2F200011A
:105150000A6B0260896841607047000040F280007D
:10516000C2F20000012101627047000010B578B161
:105170000C4640F28001C2F2000109681831FFF7C5
:1051800011FE20460121BDE81040FFF739B900BFEC
:105190004FF0500080F31188BFF36F8FBFF34F8F34
:1051A000FEE7000070B588B140F28006C2F200064A
:1051B0000C46316815461831FFF726FE85B14FF0D1
:1051C000FF302946BDE87040FFF71AB94FF0500094
:1051D00080F31188BFF36F8FBFF34F8FFEE700BFDF
:1051E000B56830680430FFF79FFD58B13068641926
:1051F000446014D3F06A31680431BDE87040FFF7B1
:10520000D1BD00BF30680121C06AF26801FA00F028
:1052100022EA0000F060306864194460EAD2B06AA3
:1052200031680431FFF7BEFDF069844238BFF46194
:1052300070BD000010B588B00020CDE9050006A8BB
:1052400005A904AAFFF782FD059800283ED0069C18
:10525000002C45D05421049A07910799542949D12B
:1052600007992063022084F8510007A80021CDE9A6
:10527000001044F27550C0F6000028A100230294EB
:10528000FFF78CF92046FFF7FBF8079840F28004FF
:10529000C2F20004A061B0B100F05AFE411C33D04C
:1052A000012810D14FF0500080F31188BFF36F8FA9
:1052B000BFF34F8F4FF0FF30E061012020610020ED
:1052C000A06000F06FF808B010BD00BF4FF05000B4
:1052D00080F31188BFF36F8FBFF34F8FFEE700BFDE
:1052E0004FF0500080F31188BFF36F8FBFF34F8FE3
:1052F000FEE700BF4FF0500080F31188BFF36F8FBF
:10530000BFF34F8FFEE700BF4FF0500080F31188CE
:10531000BFF36F8FBFF34F8FFEE700BF49444C458B
:105320000000000040F28000C2F20000416801313C
:105330004160704740F28000C2F2000041680029DD
:105340001EBF01210162704700210162C168B1FAEC
:1053500081F1C9B2C1F11F0140F66C5201EB81012C
:10536000C2F2000252F8213063B102EB810252F81E
:10537000041F4968131D994211600DD0C96801606E
:10538000704700BF4FF0500080F31188BFF36F8F5C
:10539000BFF34F8FFEE700BF49681160C968016025
:1053A00070470000B0B584B04EF2004CCEF2000C55
:1053B0009CF800100291FF218CF800109CF800105E
:1053C0008DF807109DF8071001F0500240F25011BF
:1053D000C2F200010A7007224A609DF90720B2F16B
:1053E000FF3F5FDC032200BFD31C4B609DF807002A
:1053F00040008DF807009DF90700B0F1FF3F23DC66
:10540000931C4B609DF8070040008DF807009DF944
:105410000700B0F1FF3F17DC531C4B609DF80700FD
:1054200040008DF807009DF90700B0F1FF3F0BDC4D
:105430004A609DF80700043A40008DF807009DF986
:1054400007000028D0D4131D032B2BD14FF440703C
:10545000486002988CF80000DCF8200940F47000E5
:10546000CCF82009DCF8200940F07040CCF8200985
:10547000FFF77EFD40F20C04C2F200040025256017
:10548000FFF718F9FFF756FF039520684FF050011A
:1054900081F31188BFF36F8FBFF34F8F013011D0AD
:1054A000FEE700BF4FF0500080F31188BFF36F8F0D
:1054B000BFF34F8FFEE700BF039830B9039820B9C0
:1054C000039810B903980028F6D0002004B0B0BDAE
:1054D000B0B54820FFF714FB044660B30025012057
:1054E00084F846502460C4E90F05FFF79BFC206850
:1054F000D4E90F12A56302FB0103013901FB02018C
:10550000C4E90103FF20E16084F8440084F8450009
:1055100004F11000FFF736FC04F12400FFF732FC21
:10552000FFF7A4FC20460021002200232560C4E9E7
:10553000025500F0BDF82046B0BD0000B0B582B005
:10554000B1B348200190019848283BD1019801202F
:1055500000250C4681F846000960C1E90F05FFF7F8
:1055600061FC2068D4E90F12A56302FB0103013935
:1055700001FB0201C4E90103FF20E16084F844005B
:1055800084F8450004F11000FFF7FCFB04F124004F
:10559000FFF7F8FBFFF76AFC2046002100220023FA
:1055A0002560C4E9025500F083F8204602B0B0BD82
:1055B0004FF0500080F31188BFF36F8FBFF34F8F10
:1055C000FEE700BF4FF0500080F31188BFF36F8FEC
:1055D000BFF34F8FFEE7000010B582B070B11C46DC
:1055E000B3B1F9B9F2B14FF0500080F31188BFF3B5
:1055F0006F8FBFF34F8F00BFFEE700BF4FF050002B
:1056000080F31188BFF36F8FBFF34F8FFEE700BFAA
:105610004FF0500080F31188BFF36F8FBFF34F8FAF
:10562000FEE700BF51B14AB94FF0500080F3118836
:10563000BFF36F8FBFF34F8FFEE700BF4823019387
:10564000019B482B2AD1019B0123002984F8463075
:1056500014BF22602460C4E90F01FFF7E3FB206858
:10566000D4E90F12002302FB010C013901FB0201F6
:10567000A363C4E9010CFF20E16084F8440084F8CE
:10568000450004F11000FFF77DFB04F12400FFF753
:1056900079FBFFF7EBFB204602B010BD4FF0500046
:1056A00080F31188BFF36F8FBFF34F8FFEE70000C9
:1056B0002DE9F04F83B00292C0B11D4617460E4649
:1056C0000446E9B1022D03D1E06B012840F0888047
:1056D00000F098FA10BB0FB34FF0500080F3118820
:1056E000BFF36F8FBFF34F8FFEE700BF4FF0500047
:1056F00080F31188BFF36F8FBFF34F8FFEE700BFBA
:10570000206C0028DED04FF0500080F31188BFF3EA
:105710006F8FBFF34F8F00BFFEE700BFFFF782FB25
:10572000A06B022D66D0E16B884263D304F11008B0
:1057300001206F460DF108090DE000BF2046FFF77C
:10574000A5F900F08FFBFFF76DFBA06BE16B8842C2
:105750004FF000004ED30299002973D0C00702D049
:105760003846FFF7F1FCFFF781FBFFF7DBFDFFF7A2
:1057700059FB94F84400FF2804BF002084F844003B
:1057800094F84500FF2804BF002084F84500FFF787
:105790006DFB3846494600F077F9002858D1FFF7ED
:1057A00041FBD4F838A0D4F83CB0FFF75FFBDA45F2
:1057B000C4D102994046FFF7D9FC2046FFF766F9AD
:1057C00000F050FB0028BED14EF60450CEF200008F
:1057D0004FF080510160BFF34F8FBFF36F8FB2E77F
:1057E0004FF0500080F31188BFF36F8FBFF34F8FDE
:1057F000FEE700BFA76B226CD2B19DB3E0683146D3
:10580000FAF75AFDE168206C2268091A9142E160BA
:1058100003D2A16840420844E060A81EB0FA80F0BC
:1058200040093946002F18BF012108403F1A26E0E1
:105830002068002520BBA06800F07EFAA560054620
:105840001EE000BFFFF712FB002003B0BDE8F08FA1
:105850002046FFF71BF900F005FB002003B0BDE870
:10586000F08F00BF60683146FAF726FD216CD4E95D
:10587000010208449042606001D320686060002506
:10588000781CA06354F8240FA0B1204600F0B0FAB1
:1058900050B14EF60450CEF200004FF0805101603E
:1058A000BFF34F8FBFF36F8FFFF7E0FA012003B014
:1058B000BDE8F08F002DF7D04EF60450CEF2000078
:1058C0004FF080510160BFF34F8FBFF36F8FFFF731
:1058D000CDFA012003B0BDE8F08F00002DE9F04FB4
:1058E00083B0029290B116460D460446002949D075
:1058F00000F088F9A0B99EB14FF0500080F31188F4
:10590000BFF36F8FBFF34F8FFEE700BF4FF0500024
:1059100080F31188BFF36F8FBFF34F8FFEE700BF97
:10592000FFF780FAD4F838A0BAF1000F38D0226C13
:1059300052B1D4E902308118E160994224BF216854
:10594000E1602846FAF7B8FCAAF10100A06354F818
:10595000100F80B1204600F04BFA002800F086803E
:105960004EF60450CEF200004FF080510160BFF3BC
:105970004F8FBFF36F8F0126FFF778FA304603B0E1
:10598000BDE8F08F206C0028B2D04FF0500080F3BB
:105990001188BFF36F8FBFF34F8F00BFFEE700BFCB
:1059A000002E4FF0000662D0EB46584604F1240862
:1059B000FFF7CAFB0DF10809FFF758FAFFF7B2FC31
:1059C000FFF730FA94F84400FF2808BF84F84460D9
:1059D00094F84500FF2808BF84F84560FFF746FAB1
:1059E0005846494600F050F860B12046FFF74EF89F
:1059F00000F038FAFFF716FAA76BFFF737FA1FBB6C
:105A00003CE000BFFFF70EFAA76BFFF72FFA2FB1AC
:105A10002046FFF73BF800F025FA15E002994046D2
:105A2000FFF7A4FB2046FFF731F800F01BFA58B946
:105A30004EF60450CEF200004FF080510160BFF3EB
:105A40004F8FBFF36F8F00BFFFF7ECF9D4F838A08A
:105A5000BAF1000F7FF46BAF02980028ACD100269A
:105A6000FFF704FA304603B0BDE8F08F0126FFF7D8
:105A7000FDF9304603B0BDE8F08F00BF0026304688
:105A800003B0BDE8F08F0000B0B5D8B10D4619B332
:105A90000446FFF7C7F940F2800CC2F2000CDCF8B4
:105AA000082029684B1C21D0D4E9000EDCF83030E6
:105AB000834221D072451FD30124FFF7D7F9204636
:105AC000B0BD00BF4FF0500080F31188BFF36F8F5F
:105AD000BFF34F8FFEE700BF4FF0500080F31188F7
